:030000000204F502
:0C04F500787FE4F6D8FD75812502053CF7
:1009AB003F065B4F666D7D077F6F40808284868834
:0909BB008A8C81838587898B8D6C
:10098C000208000002220000021B0000020A000004
:0E099C00070C20592304120621031F0000003F
:1009EE0090800074FFF090A000E4F0900000F022E0
:10096C0090E00074FFF07401A807088002C333D82C
:10097C00FC90C000F090E000EDF0900000E4F0225C
:10084300E4FD7F8E1209C7E4F524F52574B625254A
:10085300F58274093524F583E493FF740C2525F898
:10086300E6FD1209C70525E52570020524C3940793
:0D087300E524940040D67D807F8E0209C7E9
:1008EC00E4F524F52574BD2525F58274093524F528
:1008FC0083E493FF1208B8740C2525F8A607052588
:0F090C00E52570020524C39407E524940040D626
:01091B0022B9
:10068B00E521C4540F9009AB93F4FDE4FFFE12096E
:10069B006C7F641206F4E521540F9009AB93F4FDC3
:1006AB007F017E0012096C7F641206F49009B5E499
:1006BB0093F4FD7F027E0012096C7F641206F4E551
:1006CB0020C4540F9009AB93F4FD7F037E001209F5
:1006DB006C7F641206F4E5207F04540F9009AB93F2
:0906EB00F4FD7E0012096C7F642D
:0B06F400EF1FAC0670011E4C70F622D8
:04091C007FC87E0012
:100920008E248F25E5251525AE24700215244E60F2
:100930001412000E12058112060A1208001202D4C7
:0609400012041580DF2205
:10060A00E5144513707A20B07730B174E50B6401B4
:10061A00450A606CE512C4540F9009AB93F4FDE4EB
:10062A00FFFE1206EFE5127F011206E59009B5E416
:10063A0093F4FD7F021206EDE510C4540F9009AB46
:10064A0093F4FD7F031206EDE5101206E39009B557
:10065A00E493F4FD7F051206EDE50FC4540F9009EB
:10066A00AB93F4FD7F061206EDE50F540F9009AB2C
:10067A0093F4FD7F071206EDE4FD7F08FE1206EFF4
:01068A00224D
:10080000E5144513703C20B13930B03612068B9098
:1008100009B5E493F4FD7F051206EDE51FC4540FFE
:100820009009AB93F4FD7F061206EDE51F540F907F
:1008300009AB93F4FD7F071206EDE4FD7F08FE127D
:0308400006EF229E
:10058100E5144513700630B00320B108E50B640192
:10059100450A7074E50EC4540F9009AB93F4FDE461
:1005A100FFFE1206EFE50E540F9009AB93F4FD7FA9
:1005B100011206ED9009B5E493F4FD7F021206EDF8
:1005C100E50DC4540F9009AB93F4FD7F031206EDC2
:1005D100E50D1206E39009B5E493F4FD7F051206DB
:1005E100EDE50CC4540F9009AB93F4FD7F061206A0
:1005F100EDE50C540F9009AB93F4FD7F071206ED66
:09060100E4FD7F08FE1206EF2261
:0F04060012000E12058112060A1208001202D40B
:10041500E5146401451360030204F4AE15AF16FC40
:100425007D0A12075A74AB2FF58274093EF583E4F1
:1004350093F4FDE4FFFE1206EFAE15AF167C007DCA
:100445000A12075A74AB2DF58274093CF583E493BF
:10045500F4FD7F011206ED9009B5E493F4FD7F02EA
:100465001206EDAE19AF1A7C007D0A12075A74AB5D
:100475002FF58274093EF583E493F4FD7F0312069C
:10048500EDAE19AF1A7C007D0A12075A74AB2DF533
:100495008274093CF583E493F4FD7F041206ED9024
:1004A50009B5E493F4FD7F051206EDAE1DAF1E7C84
:1004B500007D0A12075A74AB2FF58274093EF58345
:1004C500E493F4FD7F061206EDAE1DAF1E7C007DA4
:1004D5000A12075A74AB2DF58274093CF583E4932F
:1004E500F4FD7F071206EDE4FD7F08FE1206EF22FC
:1002D400E514640245136003020405E508600302A3
:1002E4000405E5091460421470030203BB24026090
:1002F40003020405E523452270097DFFFFFE120673
:10030400EF801BE521C4540F9009AB93F4FDE4FF87
:10031400FE1206EFE521540F9009AB93F4FD7F0123
:100324001206ED1206B7020388E521C4540F9009A2
:10033400AB93F4FDE4FFFE1206EFE521540F9009A0
:10034400AB93F4FD7F011206ED9009B5E493F4FD3F
:100354007F021206EDE5234522700A7DFF7F03FE2E
:100364001206EF801AE520C4540F9009AB93F4FDF4
:100374007F031206EDE520540F9009AB93F4FD7F43
:10038400041206ED9009B5E493F4FD7F051206ED21
:10039400E51FC4540F9009AB93F4FD7F061206EDDC
:1003A400E51F540F9009AB93F4FD7F071206EDE4AB
:1003B400FD7F08FE02040212068B9009B5E493F453
:1003C400FD7F051206EDE5234522700E7DFF7F06B5
:1003D400FE1206EF7F077E008024E51FC4540F90B1
:1003E40009AB93F4FD7F061206EDE51F540F900947
:1003F400AB93F4FD7F071206EDE4FD7F08FE1206C1
:02040400EF22E5
:10000E00E51464034513600302019BE508600302D7
:10001E00019BE50914606014700302011324026051
:10002E000302019BE523452270097DFFFFFE1206A8
:10003E00EF801BE50EC4540F9009AB93F4FDE4FF63
:10004E00FE1206EFE50E540F9009AB93F4FD7F01FF
:10005E001206ED9009B5E493F4FD7F021206EDE56C
:10006E000DC4540F9009AB93F4FD7F031206EDE51A
:10007E000D1206E30200E0E50EC4540F9009AB9397
:10008E00F4FDE4FFFE1206EFE50E540F9009AB935C
:10009E00F4FD7F011206ED9009B5E493F4FD7F02A5
:1000AE001206EDE5234522700A7DFF7F03FE120640
:1000BE00EF801AE50DC4540F9009AB93F4FD7F0346
:1000CE001206EDE50D540F9009AB93F4FD7F04126B
:1000DE0006ED9009B5E493F4FD7F051206EDE50CEF
:1000EE00C4540F9009AB93F4FD7F061206EDE50C98
:1000FE00540F9009AB93F4FD7F071206EDE4FD7FDC
:10010E0008FE020198E50EC4540F9009AB93F4FD5E
:10011E00E4FFFE1206EFE50E540F9009AB93F4FDCB
:10012E007F011206ED9009B5E493F4FD7F021206ED
:10013E00EDE50DC4540F9009AB93F4FD7F03120649
:10014E00EDE50D1206E39009B5E493F4FD7F05127B
:10015E0006EDE5234522700E7DFF7F06FE1206EFAB
:10016E007F077E008024E50CC4540F9009AB93F4F6
:10017E00FD7F061206EDE50C540F9009AB93F4FDCE
:0E018E007F071206EDE4FD7F08FE1206EF2249
:10019C0030B00302026D12091C30B00302026D2054
:1001AC00B00512040680F8E5094508700CE51464E6
:1001BC00024513700405218026E509640145087089
:1001CC000CE51464024513700405208012E50964E3
:1001DC00024508700AE514640245137002051FE518
:1001EC000945087013E51464034513700BFD7F8EED
:1001FC001209C79009B88034E509640145087013E9
:10020C00E51464034513700BFD7F8E1209C790092A
:10021C00B78019E509640245087020E514640345AC
:10022C00137018FD7F8E1209C79009B6E493FFE492
:10023C00FD1209C77D807F8E1209C7E51464014544
:10024C00137012051CE51C7002051B6402451B7023
:10025C0004F51BF51CE50B6401450A7004F50AF561
:10026C000B20B13A12091C20B13420B1051204063E
:10027C0080F80509E5097002050864034508700457
:10028C00F508F509E514640145137012E51C451BCE
:10029C00700CF515F516F519F51AF51DF51E20B2AD
:1002AC002612091C20B22020B20512040680F87513
:1002BC0008007509020514E5147002051364044561
:0802CC00137004F513F5142270
:1009FE00758901758C3C758AAFD2AFD2A9D28C2283
:03000B000206FFEB
:1006FF00C0E0758C3C758AAF0518E51870020517B8
:10070F00E51C6401451B7008051EE51E7002051DE2
:10071F00E51E6414451D701EF51DF51E051AE51A1C
:10072F0070020519643C4519700CF519F51A051678
:10073F00E51670020515E51864144517700A632352
:0B074F00FF6322FFF517F518D0E03221
:10088000E50CB51F10E50DB5200BE50EB52106757D
:100890000A00750B01E50B6401450A700C90A0007D
:1008A0007440F0900000E4F022E50B450A700890D7
:0808B000A000F0900000F0220E
:100946001208431209FE1209EE12080012000E12D6
:10095600058112060A1202D412041512019C12080D
:06096600EC12088080E3A2
:1009DB00E4FEC297EF1392A3EFC313FFD2970EBEA1
:0209EB0008F012
:0109ED0022E7
:0309C40025F0FD1E
:1009C700C29300C29700D293001209DBAF05120948
:0409D700DBC29322CA
:1008B800E4FDC29300C29700D293001209DBE4FF63
:1008C800C297EDC313FD30A303430580D2970FBF32
:1008D80008EEC29300C29700D29700C2A300D2A329
:0308E80000AF0559
:0108EB0022EA
:1007AF00AC07AA05E4FD7F8E1209C7EB75F00A842A
:1007BF00C454F0FFEB75F00A84EF7F801209C4EA8E
:1007CF0075F00A84C454F0FFEA75F00A84EF7F8253
:1007DF001209C4EC75F00A84C454F0FFEC75F00AEA
:1007EF0084EF25F0FD7F841209C77D807F8E02097B
:0107FF00C732
:10050100020946E493A3F8E493A34003F68001F2C1
:1005110008DFF48029E493A3F85407240CC8C333FB
:10052100C4540F4420C8834004F456800146F6DFCA
:10053100E4800B010204081020408090098CE47EC5
:10054100019360BCA3FF543F30E509541FFEE493BF
:10055100A360010ECF54C025E060A840B8E493A386
:10056100FAE493A3F8E493A3C8C582C8CAC583CAB1
:10057100F0A3C8C582C8CAC583CADFE9DEE780BE69
:0109AA00004C
:10075A00BC000BBE0029EF8DF084FFADF022E4CC83
:10076A00F875F008EF2FFFEE33FEEC33FCEE9DEC4C
:10077A00984005FCEE9DFE0FD5F0E9E4CEFD22ED92
:10078A00F8F5F0EE8420D21CFEADF075F008EF2FDC
:10079A00FFED33FD4007985006D5F0F222C398FDCD
:0507AA000FD5F0EA226A
:00000001FF
